{
  "contractName": "LearnChain",
  "abi": [
    {
      "constant": false,
      "inputs": [
        {
          "internalType": "string",
          "name": "n",
          "type": "string"
        },
        {
          "internalType": "string",
          "name": "pass",
          "type": "string"
        }
      ],
      "name": "addStudent",
      "outputs": [],
      "payable": false,
      "stateMutability": "nonpayable",
      "type": "function"
    },
    {
      "constant": false,
      "inputs": [
        {
          "internalType": "string",
          "name": "n",
          "type": "string"
        },
        {
          "internalType": "string",
          "name": "pass",
          "type": "string"
        }
      ],
      "name": "addEducator",
      "outputs": [],
      "payable": false,
      "stateMutability": "nonpayable",
      "type": "function"
    },
    {
      "constant": true,
      "inputs": [
        {
          "internalType": "string",
          "name": "n",
          "type": "string"
        },
        {
          "internalType": "string",
          "name": "p",
          "type": "string"
        }
      ],
      "name": "studentLogin",
      "outputs": [
        {
          "internalType": "int256",
          "name": "",
          "type": "int256"
        },
        {
          "internalType": "bool",
          "name": "",
          "type": "bool"
        }
      ],
      "payable": false,
      "stateMutability": "view",
      "type": "function"
    },
    {
      "constant": true,
      "inputs": [
        {
          "internalType": "string",
          "name": "n",
          "type": "string"
        },
        {
          "internalType": "string",
          "name": "p",
          "type": "string"
        }
      ],
      "name": "educatorLogin",
      "outputs": [
        {
          "internalType": "int256",
          "name": "",
          "type": "int256"
        },
        {
          "internalType": "bool",
          "name": "",
          "type": "bool"
        }
      ],
      "payable": false,
      "stateMutability": "view",
      "type": "function"
    },
    {
      "constant": false,
      "inputs": [
        {
          "internalType": "string",
          "name": "n",
          "type": "string"
        },
        {
          "internalType": "string",
          "name": "desc",
          "type": "string"
        },
        {
          "internalType": "string",
          "name": "auth",
          "type": "string"
        },
        {
          "internalType": "int256",
          "name": "p",
          "type": "int256"
        },
        {
          "internalType": "int256",
          "name": "d",
          "type": "int256"
        },
        {
          "internalType": "int256",
          "name": "e_id",
          "type": "int256"
        }
      ],
      "name": "addCourse",
      "outputs": [],
      "payable": false,
      "stateMutability": "nonpayable",
      "type": "function"
    },
    {
      "constant": false,
      "inputs": [
        {
          "internalType": "int256",
          "name": "s_id",
          "type": "int256"
        },
        {
          "internalType": "int256",
          "name": "c_id",
          "type": "int256"
        },
        {
          "internalType": "int256",
          "name": "_time",
          "type": "int256"
        },
        {
          "internalType": "int256",
          "name": "e_id",
          "type": "int256"
        }
      ],
      "name": "buyCourse",
      "outputs": [],
      "payable": false,
      "stateMutability": "nonpayable",
      "type": "function"
    },
    {
      "constant": false,
      "inputs": [
        {
          "internalType": "int256",
          "name": "s_id",
          "type": "int256"
        },
        {
          "internalType": "int256",
          "name": "c_id",
          "type": "int256"
        },
        {
          "internalType": "int256",
          "name": "_m",
          "type": "int256"
        }
      ],
      "name": "reviewAssignment",
      "outputs": [],
      "payable": false,
      "stateMutability": "nonpayable",
      "type": "function"
    },
    {
      "constant": false,
      "inputs": [
        {
          "internalType": "int256",
          "name": "s_id",
          "type": "int256"
        },
        {
          "internalType": "int256",
          "name": "c_id",
          "type": "int256"
        },
        {
          "internalType": "int256",
          "name": "_time",
          "type": "int256"
        }
      ],
      "name": "submitAssignment",
      "outputs": [
        {
          "internalType": "bool",
          "name": "",
          "type": "bool"
        }
      ],
      "payable": false,
      "stateMutability": "nonpayable",
      "type": "function"
    },
    {
      "constant": true,
      "inputs": [
        {
          "internalType": "int256",
          "name": "_id",
          "type": "int256"
        }
      ],
      "name": "getCourse",
      "outputs": [
        {
          "components": [
            {
              "internalType": "int256",
              "name": "id",
              "type": "int256"
            },
            {
              "internalType": "string",
              "name": "name",
              "type": "string"
            },
            {
              "internalType": "string",
              "name": "description",
              "type": "string"
            },
            {
              "internalType": "string",
              "name": "author_name",
              "type": "string"
            },
            {
              "internalType": "int256",
              "name": "author_id",
              "type": "int256"
            },
            {
              "internalType": "int256",
              "name": "price",
              "type": "int256"
            },
            {
              "internalType": "int256",
              "name": "users",
              "type": "int256"
            },
            {
              "internalType": "int256",
              "name": "deadline",
              "type": "int256"
            }
          ],
          "internalType": "struct LearnChain.Course",
          "name": "",
          "type": "tuple"
        }
      ],
      "payable": false,
      "stateMutability": "view",
      "type": "function"
    },
    {
      "constant": true,
      "inputs": [
        {
          "internalType": "int256",
          "name": "_id",
          "type": "int256"
        }
      ],
      "name": "getStudent",
      "outputs": [
        {
          "components": [
            {
              "internalType": "int256",
              "name": "id",
              "type": "int256"
            },
            {
              "internalType": "string",
              "name": "user_name",
              "type": "string"
            },
            {
              "internalType": "string",
              "name": "password",
              "type": "string"
            },
            {
              "internalType": "int256",
              "name": "balance",
              "type": "int256"
            },
            {
              "internalType": "int256[]",
              "name": "courses_id",
              "type": "int256[]"
            },
            {
              "internalType": "int256[]",
              "name": "courses_deadline",
              "type": "int256[]"
            },
            {
              "internalType": "int256[]",
              "name": "marks",
              "type": "int256[]"
            }
          ],
          "internalType": "struct LearnChain.Student",
          "name": "",
          "type": "tuple"
        }
      ],
      "payable": false,
      "stateMutability": "view",
      "type": "function"
    },
    {
      "constant": true,
      "inputs": [
        {
          "internalType": "int256",
          "name": "_id",
          "type": "int256"
        }
      ],
      "name": "getEducator",
      "outputs": [
        {
          "components": [
            {
              "internalType": "int256",
              "name": "id",
              "type": "int256"
            },
            {
              "internalType": "string",
              "name": "user_name",
              "type": "string"
            },
            {
              "internalType": "string",
              "name": "password",
              "type": "string"
            },
            {
              "internalType": "int256",
              "name": "balance",
              "type": "int256"
            },
            {
              "internalType": "int256[]",
              "name": "courses_id",
              "type": "int256[]"
            }
          ],
          "internalType": "struct LearnChain.Educator",
          "name": "",
          "type": "tuple"
        }
      ],
      "payable": false,
      "stateMutability": "view",
      "type": "function"
    },
    {
      "constant": true,
      "inputs": [],
      "name": "getCourseCount",
      "outputs": [
        {
          "internalType": "int256",
          "name": "",
          "type": "int256"
        }
      ],
      "payable": false,
      "stateMutability": "view",
      "type": "function"
    }
  ],
  "bytecode": "0x608060405234801561001057600080fd5b5061232f806100206000396000f3fe608060405234801561001057600080fd5b50600436106100b45760003560e01c8063c419f65b11610071578063c419f65b1461018c578063c839e9b5146101bd578063ce54417d146101ed578063d34b78981461021d578063e27bb1f71461024d578063e812eaa414610269576100b4565b80630fc70461146100b9578063163072e8146100d55780631b1fc4b6146100f15780638b24119b1461010d5780638db09d521461013d57806396cfda061461016e575b600080fd5b6100d360048036036100ce919081019061197d565b610285565b005b6100ef60048036036100ea91908101906119e9565b61046f565b005b61010b600480360361010691908101906118cb565b610677565b005b610127600480360361012291908101906118cb565b610884565b6040516101349190611ffd565b60405180910390f35b6101576004803603610152919081019061197d565b610a02565b604051610165929190612033565b60405180910390f35b610176610b4c565b6040516101839190612018565b60405180910390f35b6101a660048036036101a1919081019061197d565b610b56565b6040516101b4929190612033565b60405180910390f35b6101d760048036036101d291908101906118a2565b610ca0565b6040516101e4919061211c565b60405180910390f35b610207600480360361020291908101906118a2565b610ee6565b6040516102149190612160565b60405180910390f35b610237600480360361023291908101906118a2565b611173565b604051610244919061213e565b60405180910390f35b6102676004803603610262919081019061197d565b611350565b005b610283600480360361027e919081019061191a565b6114dd565b005b600660003373ffffffffffffffffffffffffffffffffffffffff1673ffffffffffffffffffffffffffffffffffffffff16815260200190815260200160002060009054906101000a900460ff1615610312576040517f08c379a0000000000000000000000000000000000000000000000000000000008152600401610309906120fc565b60405180910390fd5b6001600081548092919060010191905055506001546004600060015481526020019081526020016000206000018190555081600460006001548152602001908152602001600020600101908051906020019061036f9291906116e3565b5080600460006001548152602001908152602001600020600201908051906020019061039c9291906116e3565b506000600460006001548152602001908152602001600020600301819055506001600660003373ffffffffffffffffffffffffffffffffffffffff1673ffffffffffffffffffffffffffffffffffffffff16815260200190815260200160002060006101000a81548160ff0219169083151502179055506001600760003373ffffffffffffffffffffffffffffffffffffffff1673ffffffffffffffffffffffffffffffffffffffff16815260200190815260200160002060006101000a81548160ff0219169083151502179055505050565b600760003373ffffffffffffffffffffffffffffffffffffffff1673ffffffffffffffffffffffffffffffffffffffff16815260200190815260200160002060009054906101000a900460ff166104fb576040517f08c379a00000000000000000000000000000000000000000000000000000000081526004016104f29061209c565b60405180910390fd5b600260008154809291906001019190505550600254600560006002548152602001908152602001600020600001819055508560056000600254815260200190815260200160002060010190805190602001906105589291906116e3565b508460056000600254815260200190815260200160002060020190805190602001906105859291906116e3565b508360056000600254815260200190815260200160002060030190805190602001906105b29291906116e3565b508060056000600254815260200190815260200160002060040181905550826005600060025481526020019081526020016000206005018190555060006005600060025481526020019081526020016000206006018190555062015180820260056000600254815260200190815260200160002060070181905550600460008281526020019081526020016000206004016002549080600181540180825580915050906001820390600052602060002001600090919290919091505550505050505050565b600760003373ffffffffffffffffffffffffffffffffffffffff1673ffffffffffffffffffffffffffffffffffffffff16815260200190815260200160002060009054906101000a900460ff16610703576040517f08c379a00000000000000000000000000000000000000000000000000000000081526004016106fa906120bc565b60405180910390fd5b60006003600085815260200190815260200160002060040180549050905060008090505b818110156107a0578360036000878152602001908152602001600020600401828154811061075157fe5b90600052602060002001541415610793578260036000878152602001908152602001600020600601828154811061078457fe5b90600052602060002001819055505b8080600101915050610727565b50605a82126107d3576014600360008681526020019081526020016000206003016000828254019250508190555061087e565b6050821261080557600a600360008681526020019081526020016000206003016000828254019250508190555061087d565b60468212610837576005600360008681526020019081526020016000206003016000828254019250508190555061087c565b602882121561087b576040517f08c379a00000000000000000000000000000000000000000000000000000000081526004016108729061207c565b60405180910390fd5b5b5b5b50505050565b6000600760003373ffffffffffffffffffffffffffffffffffffffff1673ffffffffffffffffffffffffffffffffffffffff16815260200190815260200160002060009054906101000a900460ff1615610913576040517f08c379a000000000000000000000000000000000000000000000000000000000815260040161090a9061205c565b60405180910390fd5b60006003600086815260200190815260200160002060040180549050905060008090505b818110156109f8578460036000888152602001908152602001600020600401828154811061096157fe5b906000526020600020015414156109eb5760036000878152602001908152602001600020600501818154811061099357fe5b906000526020600020015484136109af576001925050506109fb565b60006003600088815260200190815260200160002060060182815481106109d257fe5b90600052602060002001819055506000925050506109fb565b8080600101915050610937565b50505b9392505050565b600080600080905060008090505b6000548113610b0d5785604051602001610a2a9190611fcf565b6040516020818303038152906040528051906020012060036000838152602001908152602001600020600101604051602001610a669190611fe6565b60405160208183030381529060405280519060200120148015610ae9575084604051602001610a959190611fcf565b6040516020818303038152906040528051906020012060036000838152602001908152602001600020600201604051602001610ad19190611fe6565b60405160208183030381529060405280519060200120145b15610b005760019150806001935093505050610b45565b8080600101915050610a10565b5080610b43577fffffffffffffffffffffffffffffffffffffffffffffffffffffffffffffffff60008191509250925050610b45565b505b9250929050565b6000600254905090565b600080600080905060008090505b6001548113610c615785604051602001610b7e9190611fcf565b6040516020818303038152906040528051906020012060046000838152602001908152602001600020600101604051602001610bba9190611fe6565b60405160208183030381529060405280519060200120148015610c3d575084604051602001610be99190611fcf565b6040516020818303038152906040528051906020012060046000838152602001908152602001600020600201604051602001610c259190611fe6565b60405160208183030381529060405280519060200120145b15610c545760019150806001935093505050610c99565b8080600101915050610b64565b5080610c97577fffffffffffffffffffffffffffffffffffffffffffffffffffffffffffffffff60008191509250925050610c99565b505b9250929050565b610ca8611763565b600560008381526020019081526020016000206040518061010001604052908160008201548152602001600182018054600181600116156101000203166002900480601f016020809104026020016040519081016040528092919081815260200182805460018160011615610100020316600290048015610d6a5780601f10610d3f57610100808354040283529160200191610d6a565b820191906000526020600020905b815481529060010190602001808311610d4d57829003601f168201915b50505050508152602001600282018054600181600116156101000203166002900480601f016020809104026020016040519081016040528092919081815260200182805460018160011615610100020316600290048015610e0c5780601f10610de157610100808354040283529160200191610e0c565b820191906000526020600020905b815481529060010190602001808311610def57829003601f168201915b50505050508152602001600382018054600181600116156101000203166002900480601f016020809104026020016040519081016040528092919081815260200182805460018160011615610100020316600290048015610eae5780601f10610e8357610100808354040283529160200191610eae565b820191906000526020600020905b815481529060010190602001808311610e9157829003601f168201915b505050505081526020016004820154815260200160058201548152602001600682015481526020016007820154815250509050919050565b610eee6117a8565b600360008381526020019081526020016000206040518060e001604052908160008201548152602001600182018054600181600116156101000203166002900480601f016020809104026020016040519081016040528092919081815260200182805460018160011615610100020316600290048015610faf5780601f10610f8457610100808354040283529160200191610faf565b820191906000526020600020905b815481529060010190602001808311610f9257829003601f168201915b50505050508152602001600282018054600181600116156101000203166002900480601f0160208091040260200160405190810160405280929190818152602001828054600181600116156101000203166002900480156110515780601f1061102657610100808354040283529160200191611051565b820191906000526020600020905b81548152906001019060200180831161103457829003601f168201915b5050505050815260200160038201548152602001600482018054806020026020016040519081016040528092919081815260200182805480156110b357602002820191906000526020600020905b81548152602001906001019080831161109f575b505050505081526020016005820180548060200260200160405190810160405280929190818152602001828054801561110b57602002820191906000526020600020905b8154815260200190600101908083116110f7575b505050505081526020016006820180548060200260200160405190810160405280929190818152602001828054801561116357602002820191906000526020600020905b81548152602001906001019080831161114f575b5050505050815250509050919050565b61117b6117e5565b600460008381526020019081526020016000206040518060a001604052908160008201548152602001600182018054600181600116156101000203166002900480601f01602080910402602001604051908101604052809291908181526020018280546001816001161561010002031660029004801561123c5780601f106112115761010080835404028352916020019161123c565b820191906000526020600020905b81548152906001019060200180831161121f57829003601f168201915b50505050508152602001600282018054600181600116156101000203166002900480601f0160208091040260200160405190810160405280929190818152602001828054600181600116156101000203166002900480156112de5780601f106112b3576101008083540402835291602001916112de565b820191906000526020600020905b8154815290600101906020018083116112c157829003601f168201915b50505050508152602001600382015481526020016004820180548060200260200160405190810160405280929190818152602001828054801561134057602002820191906000526020600020905b81548152602001906001019080831161132c575b5050505050815250509050919050565b600660003373ffffffffffffffffffffffffffffffffffffffff1673ffffffffffffffffffffffffffffffffffffffff16815260200190815260200160002060009054906101000a900460ff16156113dd576040517f08c379a00000000000000000000000000000000000000000000000000000000081526004016113d4906120fc565b60405180910390fd5b600080815480929190600101919050555060005460036000805481526020019081526020016000206000018190555081600360008054815260200190815260200160002060010190805190602001906114379291906116e3565b5080600360008054815260200190815260200160002060020190805190602001906114639291906116e3565b5060006003600080548152602001908152602001600020600301819055506001600660003373ffffffffffffffffffffffffffffffffffffffff1673ffffffffffffffffffffffffffffffffffffffff16815260200190815260200160002060006101000a81548160ff0219169083151502179055505050565b600760003373ffffffffffffffffffffffffffffffffffffffff1673ffffffffffffffffffffffffffffffffffffffff16815260200190815260200160002060009054906101000a900460ff161561156a576040517f08c379a0000000000000000000000000000000000000000000000000000000008152600401611561906120dc565b60405180910390fd5b600560008481526020019081526020016000206006016000815480929190600101919050555060036000858152602001908152602001600020600401839080600181540180825580915050906001820390600052602060002001600090919290919091505550600360008581526020019081526020016000206005018260056000868152602001908152602001600020600701540190806001815401808255809150509060018203906000526020600020016000909192909190915055506005600084815260200190815260200160002060050154600360008681526020019081526020016000206003016000828254039250508190555060056000848152602001908152602001600020600501546004600083815260200190815260200160002060030160008282540192505081905550600360008581526020019081526020016000206006016000908060018154018082558091505090600182039060005260206000200160009091929091909150555050505050565b828054600181600116156101000203166002900490600052602060002090601f016020900481019282601f1061172457805160ff1916838001178555611752565b82800160010185558215611752579182015b82811115611751578251825591602001919060010190611736565b5b50905061175f9190611814565b5090565b60405180610100016040528060008152602001606081526020016060815260200160608152602001600081526020016000815260200160008152602001600081525090565b6040518060e00160405280600081526020016060815260200160608152602001600081526020016060815260200160608152602001606081525090565b6040518060a0016040528060008152602001606081526020016060815260200160008152602001606081525090565b61183691905b8082111561183257600081600090555060010161181a565b5090565b90565b600081359050611848816122d5565b92915050565b600082601f83011261185f57600080fd5b813561187261186d826121af565b612182565b9150808252602083016020830185838301111561188e57600080fd5b611899838284612282565b50505092915050565b6000602082840312156118b457600080fd5b60006118c284828501611839565b91505092915050565b6000806000606084860312156118e057600080fd5b60006118ee86828701611839565b93505060206118ff86828701611839565b925050604061191086828701611839565b9150509250925092565b6000806000806080858703121561193057600080fd5b600061193e87828801611839565b945050602061194f87828801611839565b935050604061196087828801611839565b925050606061197187828801611839565b91505092959194509250565b6000806040838503121561199057600080fd5b600083013567ffffffffffffffff8111156119aa57600080fd5b6119b68582860161184e565b925050602083013567ffffffffffffffff8111156119d357600080fd5b6119df8582860161184e565b9150509250929050565b60008060008060008060c08789031215611a0257600080fd5b600087013567ffffffffffffffff811115611a1c57600080fd5b611a2889828a0161184e565b965050602087013567ffffffffffffffff811115611a4557600080fd5b611a5189828a0161184e565b955050604087013567ffffffffffffffff811115611a6e57600080fd5b611a7a89828a0161184e565b9450506060611a8b89828a01611839565b9350506080611a9c89828a01611839565b92505060a0611aad89828a01611839565b9150509295509295509295565b6000611ac68383611b3f565b60208301905092915050565b6000611add82612200565b611ae7818561222e565b9350611af2836121db565b8060005b83811015611b23578151611b0a8882611aba565b9750611b1583612221565b925050600181019050611af6565b5085935050505092915050565b611b398161226c565b82525050565b611b4881612278565b82525050565b611b5781612278565b82525050565b6000611b6882612216565b611b728185612261565b9350611b82818560208601612291565b80840191505092915050565b6000611b998261220b565b611ba3818561223f565b9350611bb3818560208601612291565b611bbc816122c4565b840191505092915050565b600081546001811660008114611be45760018114611c0957611c4d565b607f6002830416611bf58187612261565b955060ff1983168652808601935050611c4d565b60028204611c178187612261565b9550611c22856121eb565b60005b82811015611c4457815481890152600182019150602081019050611c25565b82880195505050505b505092915050565b6000611c62601f83612250565b91507f4e6f7420617574686f72697a656420746f207375626d697420636f75727365006000830152602082019050919050565b6000611ca2601783612250565b91507f536f7272792c20796f752068617665206661696c65642e0000000000000000006000830152602082019050919050565b6000611ce2601c83612250565b91507f4e6f7420617574686f72697a656420746f2061646420636f75727365000000006000830152602082019050919050565b6000611d22601f83612250565b91507f4e6f7420617574686f72697a656420746f2072657669657720636f75727365006000830152602082019050919050565b6000611d62601c83612250565b91507f4e6f7420617574686f72697a656420746f2062757920636f75727365000000006000830152602082019050919050565b6000611da2601b83612250565b91507f4164647265737320616c726561647920686173206163636f756e7400000000006000830152602082019050919050565b600061010083016000830151611dee6000860182611b3f565b5060208301518482036020860152611e068282611b8e565b91505060408301518482036040860152611e208282611b8e565b91505060608301518482036060860152611e3a8282611b8e565b9150506080830151611e4f6080860182611b3f565b5060a0830151611e6260a0860182611b3f565b5060c0830151611e7560c0860182611b3f565b5060e0830151611e8860e0860182611b3f565b508091505092915050565b600060a083016000830151611eab6000860182611b3f565b5060208301518482036020860152611ec38282611b8e565b91505060408301518482036040860152611edd8282611b8e565b9150506060830151611ef26060860182611b3f565b5060808301518482036080860152611f0a8282611ad2565b9150508091505092915050565b600060e083016000830151611f2f6000860182611b3f565b5060208301518482036020860152611f478282611b8e565b91505060408301518482036040860152611f618282611b8e565b9150506060830151611f766060860182611b3f565b5060808301518482036080860152611f8e8282611ad2565b91505060a083015184820360a0860152611fa88282611ad2565b91505060c083015184820360c0860152611fc28282611ad2565b9150508091505092915050565b6000611fdb8284611b5d565b915081905092915050565b6000611ff28284611bc7565b915081905092915050565b60006020820190506120126000830184611b30565b92915050565b600060208201905061202d6000830184611b4e565b92915050565b60006040820190506120486000830185611b4e565b6120556020830184611b30565b9392505050565b6000602082019050818103600083015261207581611c55565b9050919050565b6000602082019050818103600083015261209581611c95565b9050919050565b600060208201905081810360008301526120b581611cd5565b9050919050565b600060208201905081810360008301526120d581611d15565b9050919050565b600060208201905081810360008301526120f581611d55565b9050919050565b6000602082019050818103600083015261211581611d95565b9050919050565b600060208201905081810360008301526121368184611dd5565b905092915050565b600060208201905081810360008301526121588184611e93565b905092915050565b6000602082019050818103600083015261217a8184611f17565b905092915050565b6000604051905081810181811067ffffffffffffffff821117156121a557600080fd5b8060405250919050565b600067ffffffffffffffff8211156121c657600080fd5b601f19601f8301169050602081019050919050565b6000819050602082019050919050565b60008190508160005260206000209050919050565b600081519050919050565b600081519050919050565b600081519050919050565b6000602082019050919050565b600082825260208201905092915050565b600082825260208201905092915050565b600082825260208201905092915050565b600081905092915050565b60008115159050919050565b6000819050919050565b82818337600083830152505050565b60005b838110156122af578082015181840152602081019050612294565b838111156122be576000848401525b50505050565b6000601f19601f8301169050919050565b6122de81612278565b81146122e957600080fd5b5056fea365627a7a72315820a6331ff2e5d53ed9053df34f8fa769f61eb905611ecfa9afe9aa2ae4c047ef576c6578706572696d656e74616cf564736f6c63430005100040",
  "source": "pragma solidity >=0.4.22 <0.8.0;\npragma experimental ABIEncoderV2;\n\ncontract LearnChain {\n    struct Student {\n        int256 id;\n        string user_name;\n        string password;\n        int256 balance;\n        int256[] courses_id;\n        int256[] courses_deadline;\n        int256[] marks;\n    }\n    struct Educator {\n        int256 id;\n        string user_name;\n        string password;\n        int256 balance;\n        int256[] courses_id;\n    }\n    struct Course {\n        int256 id;\n        string name;\n        string description;\n        string author_name;\n        int256 author_id;\n        int256 price;\n        int256 users;\n        int256 deadline;\n    }\n\n    int256 studentCount;\n    int256 educatorCount;\n    int256 courseCount;\n\n    mapping(int256 => Student) students;\n    mapping(int256 => Educator) educators;\n    mapping(int256 => Course) courses;\n    mapping(address => bool) hasAccount;\n    mapping(address => bool) isEducator;\n\n    function addStudent(string memory n, string memory pass) public {\n        require(!hasAccount[msg.sender], \"Address already has account\");\n        studentCount++;\n        students[studentCount].id = studentCount;\n        students[studentCount].user_name = n;\n        students[studentCount].password = pass;\n        students[studentCount].balance = 0;\n        hasAccount[msg.sender] = true;\n    }\n\n    function addEducator(string memory n, string memory pass) public {\n        require(!hasAccount[msg.sender], \"Address already has account\");\n        educatorCount++;\n        educators[educatorCount].id = educatorCount;\n        educators[educatorCount].user_name = n;\n        educators[educatorCount].password = pass;\n        educators[educatorCount].balance = 0;\n        hasAccount[msg.sender] = true;\n        isEducator[msg.sender] = true; // set the account as an Educator\n    }\n\n    function studentLogin(string memory n, string memory p)\n        public\n        view\n        returns (int256, bool)\n    {\n        //require(!isEducator[msg.sender], \"Cannot login as Student\"); //check if it's a student account\n        bool found = false;\n        for (int256 i = 0; i <= studentCount; i++) {\n            if (\n                keccak256(abi.encodePacked(students[i].user_name)) ==\n                keccak256(abi.encodePacked(n)) &&\n                keccak256(abi.encodePacked(students[i].password)) ==\n                keccak256(abi.encodePacked(p))\n            ) {\n                found = true;\n                return (i, true);\n            }\n        }\n        if (!found) {\n            return (-1, false);\n        }\n    }\n\n    function educatorLogin(string memory n, string memory p)\n        public\n        view\n        returns (int256, bool)\n    {\n        // require(isEducator[msg.sender], \"Cannot login as Eeucator\"); //check if it's an Educator account\n        bool found = false;\n        for (int256 i = 0; i <= educatorCount; i++) {\n            if (\n                keccak256(abi.encodePacked(educators[i].user_name)) ==\n                keccak256(abi.encodePacked(n)) &&\n                keccak256(abi.encodePacked(educators[i].password)) ==\n                keccak256(abi.encodePacked(p))\n            ) {\n                found = true;\n                return (i, true);\n            }\n        }\n        if (!found) {\n            return (-1, false);\n        }\n    }\n\n    function addCourse(\n        string memory n,\n        string memory desc,\n        string memory auth,\n        int256 p,\n        int256 d,\n        int256 e_id\n    ) public {\n        require(isEducator[msg.sender], \"Not authorized to add course\"); //check if it's an Educator account\n        courseCount++;\n        courses[courseCount].id = courseCount;\n        courses[courseCount].name = n;\n        courses[courseCount].description = desc;\n        courses[courseCount].author_name = auth;\n        courses[courseCount].author_id = e_id;\n        courses[courseCount].price = p;\n        courses[courseCount].users = 0;\n        courses[courseCount].deadline = d * 1 days;\n        //adding course ID to educator struct\n        educators[e_id].courses_id.push(courseCount);\n    }\n\n    function buyCourse(\n        int256 s_id,\n        int256 c_id,\n        int256 _time,\n        int256 e_id\n    ) public {\n        require(!isEducator[msg.sender], \"Not authorized to buy course\"); //check if it's a Student account\n        courses[c_id].users++;\n        students[s_id].courses_id.push(c_id);\n        students[s_id].courses_deadline.push(courses[c_id].deadline + _time);\n        students[s_id].balance -= courses[c_id].price; //deducting student balance\n        educators[e_id].balance += courses[c_id].price; //payment for educator\n        students[s_id].marks.push(0); //initializing marks for course\n    }\n\n    function reviewAssignment(\n        int256 s_id,\n        int256 c_id,\n        int256 _m\n    ) public {\n        require(isEducator[msg.sender], \"Not authorized to review course\"); //only educator can review assignments\n        uint256 totalCourses = students[s_id].courses_id.length;\n        for (uint256 i = 0; i < totalCourses; i++) {\n            if (students[s_id].courses_id[i] == c_id) {\n                students[s_id].marks[i] = _m;\n            }\n        }\n        if (_m >= 90) {\n            students[s_id].balance += 20;\n        } else if (_m >= 80) {\n            students[s_id].balance += 10;\n        } else if (_m >= 70) {\n            students[s_id].balance += 5;\n        } else if (_m < 40) {\n            revert(\"Sorry, you have failed.\");\n        }\n    }\n\n    function submitAssignment(\n        int256 s_id,\n        int256 c_id,\n        int256 _time\n    ) public returns (bool) {\n        require(!isEducator[msg.sender], \"Not authorized to submit course\"); //check if it's a Student account\n        uint256 totalCourses = students[s_id].courses_id.length;\n        for (uint256 i = 0; i < totalCourses; i++) {\n            if (students[s_id].courses_id[i] == c_id) {\n                if (_time <= students[s_id].courses_deadline[i]) {\n                    return (true);\n                }\n                //if deadline passed,set marks=0\n                else {\n                    students[s_id].marks[i] = 0;\n                    return (false);\n                }\n            }\n        }\n    }\n\n    function getCourse(int256 _id) public view returns (Course memory) {\n        return (courses[_id]);\n    }\n\n    function getStudent(int256 _id) public view returns (Student memory) {\n        return (students[_id]);\n    }\n\n    function getEducator(int256 _id) public view returns (Educator memory) {\n        return (educators[_id]);\n    }\n\n    function getCourseCount() public view returns (int256) {\n        return (courseCount);\n    }\n}\n",
  "sourcePath": "D:\\MTU Sem 3\\Code\\July17\\LearnChain-main\\contracts\\LearnChain.sol",
  "compiler": {
    "name": "solc",
    "version": "0.5.16+commit.9c3226ce.Emscripten.clang"
  },
  "schemaVersion": "3.4.16",
  "updatedAt": "2024-08-05T18:27:57.623Z",
  "networkType": "ethereum",
  "devdoc": {
    "methods": {}
  },
  "userdoc": {
    "methods": {}
  }
}